{
  "contractName": "Cod",
  "abi": [
    {
      "constant": true,
      "inputs": [],
      "name": "seller",
      "outputs": [
        {
          "name": "",
          "type": "address"
        }
      ],
      "payable": false,
      "stateMutability": "view",
      "type": "function",
      "signature": "0x08551a53"
    },
    {
      "constant": true,
      "inputs": [],
      "name": "hash",
      "outputs": [
        {
          "name": "",
          "type": "uint256"
        }
      ],
      "payable": false,
      "stateMutability": "view",
      "type": "function",
      "signature": "0x09bd5a60"
    },
    {
      "constant": true,
      "inputs": [],
      "name": "price",
      "outputs": [
        {
          "name": "",
          "type": "uint256"
        }
      ],
      "payable": false,
      "stateMutability": "view",
      "type": "function",
      "signature": "0xa035b1fe"
    },
    {
      "constant": true,
      "inputs": [
        {
          "name": "",
          "type": "address"
        }
      ],
      "name": "Balances",
      "outputs": [
        {
          "name": "",
          "type": "uint256"
        }
      ],
      "payable": false,
      "stateMutability": "view",
      "type": "function",
      "signature": "0xa8ec4c42"
    },
    {
      "constant": true,
      "inputs": [],
      "name": "id",
      "outputs": [
        {
          "name": "",
          "type": "uint256"
        }
      ],
      "payable": false,
      "stateMutability": "view",
      "type": "function",
      "signature": "0xaf640d0f"
    },
    {
      "constant": true,
      "inputs": [],
      "name": "shipper",
      "outputs": [
        {
          "name": "",
          "type": "address"
        }
      ],
      "payable": false,
      "stateMutability": "view",
      "type": "function",
      "signature": "0xc18ed1a1"
    },
    {
      "inputs": [],
      "payable": true,
      "stateMutability": "payable",
      "type": "constructor",
      "signature": "constructor"
    },
    {
      "constant": false,
      "inputs": [
        {
          "name": "_name",
          "type": "string"
        },
        {
          "name": "_price",
          "type": "uint256"
        },
        {
          "name": "_hash",
          "type": "uint256"
        }
      ],
      "name": "Ac1_CreatePackage",
      "outputs": [],
      "payable": false,
      "stateMutability": "nonpayable",
      "type": "function",
      "signature": "0x92716eae"
    },
    {
      "constant": true,
      "inputs": [
        {
          "name": "_id",
          "type": "uint256"
        }
      ],
      "name": "GetPackage",
      "outputs": [
        {
          "name": "_name",
          "type": "string"
        },
        {
          "name": "_price",
          "type": "uint256"
        }
      ],
      "payable": false,
      "stateMutability": "view",
      "type": "function",
      "signature": "0xb6ca6ba2"
    },
    {
      "constant": false,
      "inputs": [
        {
          "name": "_id",
          "type": "uint256"
        }
      ],
      "name": "Ac2_ApplyBuy",
      "outputs": [
        {
          "name": "",
          "type": "uint256"
        }
      ],
      "payable": true,
      "stateMutability": "payable",
      "type": "function",
      "signature": "0x8aa201ad"
    },
    {
      "constant": false,
      "inputs": [
        {
          "name": "_hash",
          "type": "uint256"
        }
      ],
      "name": "ConfirmOfShipper",
      "outputs": [],
      "payable": true,
      "stateMutability": "payable",
      "type": "function",
      "signature": "0xf355b48b"
    },
    {
      "constant": false,
      "inputs": [
        {
          "name": "_hash",
          "type": "uint256"
        }
      ],
      "name": "ConFirmOfSeller",
      "outputs": [],
      "payable": true,
      "stateMutability": "payable",
      "type": "function",
      "signature": "0x6ebf14d7"
    }
  ],
  "bytecode": "0x608060405260006003556000600455336000806101000a81548173ffffffffffffffffffffffffffffffffffffffff021916908373ffffffffffffffffffffffffffffffffffffffff160217905550610c658061005d6000396000f3fe6080604052600436106100af576000357c0100000000000000000000000000000000000000000000000000000000900463ffffffff16806308551a53146100b457806309bd5a601461010b5780636ebf14d7146101365780638aa201ad1461016457806392716eae146101a6578063a035b1fe14610282578063a8ec4c42146102ad578063af640d0f14610312578063b6ca6ba21461033d578063c18ed1a1146103f8578063f355b48b1461044f575b600080fd5b3480156100c057600080fd5b506100c961047d565b604051808273ffffffffffffffffffffffffffffffffffffffff1673ffffffffffffffffffffffffffffffffffffffff16815260200191505060405180910390f35b34801561011757600080fd5b506101206104a2565b6040518082815260200191505060405180910390f35b6101626004803603602081101561014c57600080fd5b81019080803590602001909291905050506104a8565b005b6101906004803603602081101561017a57600080fd5b81019080803590602001909291905050506105da565b6040518082815260200191505060405180910390f35b3480156101b257600080fd5b50610280600480360360608110156101c957600080fd5b81019080803590602001906401000000008111156101e657600080fd5b8201836020820111156101f857600080fd5b8035906020019184600183028401116401000000008311171561021a57600080fd5b91908080601f016020809104026020016040519081016040528093929190818152602001838380828437600081840152601f19601f82011690508083019250505050505050919291929080359060200190929190803590602001909291905050506107ea565b005b34801561028e57600080fd5b506102976108d5565b6040518082815260200191505060405180910390f35b3480156102b957600080fd5b506102fc600480360360208110156102d057600080fd5b81019080803573ffffffffffffffffffffffffffffffffffffffff1690602001909291905050506108db565b6040518082815260200191505060405180910390f35b34801561031e57600080fd5b506103276108f3565b6040518082815260200191505060405180910390f35b34801561034957600080fd5b506103766004803603602081101561036057600080fd5b81019080803590602001909291905050506108f9565b6040518080602001838152602001828103825284818151815260200191508051906020019080838360005b838110156103bc5780820151818401526020810190506103a1565b50505050905090810190601f1680156103e95780820380516001836020036101000a031916815260200191505b50935050505060405180910390f35b34801561040457600080fd5b5061040d610a3a565b604051808273ffffffffffffffffffffffffffffffffffffffff1673ffffffffffffffffffffffffffffffffffffffff16815260200191505060405180910390f35b61047b6004803603602081101561046557600080fd5b8101908080359060200190929190505050610a60565b005b6000809054906101000a900473ffffffffffffffffffffffffffffffffffffffff1681565b60045481565b6000809054906101000a900473ffffffffffffffffffffffffffffffffffffffff1673ffffffffffffffffffffffffffffffffffffffff163373ffffffffffffffffffffffffffffffffffffffff1614151561050357600080fd5b8060045414156105d7576000809054906101000a900473ffffffffffffffffffffffffffffffffffffffff1673ffffffffffffffffffffffffffffffffffffffff166108fc60056000600160009054906101000a900473ffffffffffffffffffffffffffffffffffffffff1673ffffffffffffffffffffffffffffffffffffffff1673ffffffffffffffffffffffffffffffffffffffff168152602001908152602001600020549081150290604051600060405180830381858888f193505050501580156105d5573d6000803e3d6000fd5b505b50565b60008060009054906101000a900473ffffffffffffffffffffffffffffffffffffffff1673ffffffffffffffffffffffffffffffffffffffff163373ffffffffffffffffffffffffffffffffffffffff161415151561063857600080fd5b8160035414151561064857600080fd5b33600160006101000a81548173ffffffffffffffffffffffffffffffffffffffff021916908373ffffffffffffffffffffffffffffffffffffffff1602179055503073ffffffffffffffffffffffffffffffffffffffff163160056000600160009054906101000a900473ffffffffffffffffffffffffffffffffffffffff1673ffffffffffffffffffffffffffffffffffffffff1673ffffffffffffffffffffffffffffffffffffffff16815260200190815260200160002081905550670de0b6b3a76400006002540260056000600160009054906101000a900473ffffffffffffffffffffffffffffffffffffffff1673ffffffffffffffffffffffffffffffffffffffff1673ffffffffffffffffffffffffffffffffffffffff1681526020019081526020016000205414151561078157600080fd5b60056000600160009054906101000a900473ffffffffffffffffffffffffffffffffffffffff1673ffffffffffffffffffffffffffffffffffffffff1673ffffffffffffffffffffffffffffffffffffffff168152602001908152602001600020549050919050565b6000809054906101000a900473ffffffffffffffffffffffffffffffffffffffff1673ffffffffffffffffffffffffffffffffffffffff163373ffffffffffffffffffffffffffffffffffffffff1614151561084557600080fd5b6003600081548092919060010191905055508160028190555080600481905550826006600060035481526020019081526020016000206000019080519060200190610891929190610b94565b506002546006600060035481526020019081526020016000206001018190555060045460066000600354815260200190815260200160002060020181905550505050565b60025481565b60056020528060005260406000206000915090505481565b60035481565b606060008060009054906101000a900473ffffffffffffffffffffffffffffffffffffffff1673ffffffffffffffffffffffffffffffffffffffff163373ffffffffffffffffffffffffffffffffffffffff1614151561095857600080fd5b8260035414151561096857600080fd5b600660008481526020019081526020016000206000016006600085815260200190815260200160002060010154818054600181600116156101000203166002900480601f016020809104026020016040519081016040528092919081815260200182805460018160011615610100020316600290048015610a2a5780601f106109ff57610100808354040283529160200191610a2a565b820191906000526020600020905b815481529060010190602001808311610a0d57829003601f168201915b5050505050915091509150915091565b600160009054906101000a900473ffffffffffffffffffffffffffffffffffffffff1681565b6000809054906101000a900473ffffffffffffffffffffffffffffffffffffffff1673ffffffffffffffffffffffffffffffffffffffff163373ffffffffffffffffffffffffffffffffffffffff1614151515610abc57600080fd5b806004541415610b9157600160009054906101000a900473ffffffffffffffffffffffffffffffffffffffff1673ffffffffffffffffffffffffffffffffffffffff166108fc60056000600160009054906101000a900473ffffffffffffffffffffffffffffffffffffffff1673ffffffffffffffffffffffffffffffffffffffff1673ffffffffffffffffffffffffffffffffffffffff168152602001908152602001600020549081150290604051600060405180830381858888f19350505050158015610b8f573d6000803e3d6000fd5b505b50565b828054600181600116156101000203166002900490600052602060002090601f016020900481019282601f10610bd557805160ff1916838001178555610c03565b82800160010185558215610c03579182015b82811115610c02578251825591602001919060010190610be7565b5b509050610c109190610c14565b5090565b610c3691905b80821115610c32576000816000905550600101610c1a565b5090565b9056fea165627a7a72305820777d85a60dde6f8b93f07d566670d5fdc8494e515dfd4acdb56634dbb8a044a00029",
  "source": "pragma solidity >=0.4.5;\ncontract Cod{\n    address payable public seller;\n    address payable public shipper;\n    uint public price;\n    uint public id = 0;\n    uint public hash = 0; \n    mapping(address => uint) public  Balances;\n    \n    constructor()public payable{\n        seller = msg.sender;\n    }\n    modifier noSeller{\n        require(msg.sender != seller);\n        _;\n    }   \n    modifier onlySeller{\n        require(msg.sender == seller);\n        _;\n    }\n        struct Package{\n         string name;\n         uint price;\n         uint hash;\n         //string details;\n   }\n   mapping(uint => Package)packages;\n   function Ac1_CreatePackage(string memory _name, uint  _price, uint _hash) onlySeller public{\n        id++;\n        price = _price;\n        hash = _hash;\n        packages[id].name = _name;\n        packages[id].price = price;\n        packages[id].hash = hash;\n        //packages[id].details = _details;\n   }\n   function GetPackage(uint _id) public onlySeller view returns( string memory _name, uint  _price){\n       require(id == _id);\n       return(\n        packages[_id].name,\n        packages[_id].price);\n   }\n   function Ac2_ApplyBuy(uint _id) public noSeller payable returns(uint){\n      require(id == _id);\n      shipper = msg.sender;\n      Balances[shipper] = address(this).balance;\n      require(Balances[shipper] == price * 1 ether);\n      return Balances[shipper];\n  }\n    function ConfirmOfShipper(uint _hash)public payable noSeller{\n        if(hash ==_hash){\n            shipper.transfer(Balances[shipper]);\n        }\n    }\n    function ConFirmOfSeller(uint _hash)public payable onlySeller{\n        if(hash ==_hash){\n            seller.transfer(Balances[shipper]);\n        }\n    }\n}",
  "sourcePath": "/home/ndeveher/my-app/contracts/Cod.sol",
  "compiler": {
    "name": "solc",
    "version": "0.5.0+commit.1d4f565a.Emscripten.clang"
  },
  "schemaVersion": "3.0.1",
  "updatedAt": "2019-06-02T11:36:40.599Z",
  "devdoc": {
    "methods": {}
  },
  "userdoc": {
    "methods": {}
  }
}