{
  "contractName": "Cod",
  "abi": [
    {
      "constant": true,
      "inputs": [],
      "name": "seller",
      "outputs": [
        {
          "name": "",
          "type": "address"
        }
      ],
      "payable": false,
      "stateMutability": "view",
      "type": "function",
      "signature": "0x08551a53"
    },
    {
      "constant": true,
      "inputs": [],
      "name": "hash",
      "outputs": [
        {
          "name": "",
          "type": "uint256"
        }
      ],
      "payable": false,
      "stateMutability": "view",
      "type": "function",
      "signature": "0x09bd5a60"
    },
    {
      "constant": true,
      "inputs": [],
      "name": "price",
      "outputs": [
        {
          "name": "",
          "type": "uint256"
        }
      ],
      "payable": false,
      "stateMutability": "view",
      "type": "function",
      "signature": "0xa035b1fe"
    },
    {
      "constant": true,
      "inputs": [
        {
          "name": "",
          "type": "address"
        }
      ],
      "name": "Balances",
      "outputs": [
        {
          "name": "",
          "type": "uint256"
        }
      ],
      "payable": false,
      "stateMutability": "view",
      "type": "function",
      "signature": "0xa8ec4c42"
    },
    {
      "constant": true,
      "inputs": [],
      "name": "id",
      "outputs": [
        {
          "name": "",
          "type": "uint256"
        }
      ],
      "payable": false,
      "stateMutability": "view",
      "type": "function",
      "signature": "0xaf640d0f"
    },
    {
      "constant": true,
      "inputs": [],
      "name": "shipper",
      "outputs": [
        {
          "name": "",
          "type": "address"
        }
      ],
      "payable": false,
      "stateMutability": "view",
      "type": "function",
      "signature": "0xc18ed1a1"
    },
    {
      "inputs": [],
      "payable": true,
      "stateMutability": "payable",
      "type": "constructor",
      "signature": "constructor"
    },
    {
      "constant": false,
      "inputs": [
        {
          "name": "_name",
          "type": "string"
        },
        {
          "name": "_price",
          "type": "uint256"
        }
      ],
      "name": "Ac1_CreatePackage",
      "outputs": [],
      "payable": false,
      "stateMutability": "nonpayable",
      "type": "function",
      "signature": "0xa3166f7f"
    },
    {
      "constant": true,
      "inputs": [
        {
          "name": "_id",
          "type": "uint256"
        }
      ],
      "name": "GetPackage",
      "outputs": [
        {
          "name": "_name",
          "type": "string"
        },
        {
          "name": "_price",
          "type": "uint256"
        }
      ],
      "payable": false,
      "stateMutability": "view",
      "type": "function",
      "signature": "0xb6ca6ba2"
    },
    {
      "constant": false,
      "inputs": [],
      "name": "Ac2_CreateHash",
      "outputs": [
        {
          "name": "",
          "type": "uint256"
        }
      ],
      "payable": false,
      "stateMutability": "nonpayable",
      "type": "function",
      "signature": "0x6f0c99d8"
    },
    {
      "constant": true,
      "inputs": [],
      "name": "GetHash",
      "outputs": [
        {
          "name": "",
          "type": "uint256"
        }
      ],
      "payable": false,
      "stateMutability": "view",
      "type": "function",
      "signature": "0xed35485e"
    },
    {
      "constant": false,
      "inputs": [
        {
          "name": "_id",
          "type": "uint256"
        }
      ],
      "name": "Ac3_ApplyBuy",
      "outputs": [
        {
          "name": "",
          "type": "uint256"
        }
      ],
      "payable": true,
      "stateMutability": "payable",
      "type": "function",
      "signature": "0x1b76998a"
    },
    {
      "constant": false,
      "inputs": [
        {
          "name": "_hash",
          "type": "uint256"
        }
      ],
      "name": "ConfirmOfShipper",
      "outputs": [],
      "payable": true,
      "stateMutability": "payable",
      "type": "function",
      "signature": "0xf355b48b"
    },
    {
      "constant": false,
      "inputs": [
        {
          "name": "_hash",
          "type": "uint256"
        }
      ],
      "name": "ConFirmOfSeller",
      "outputs": [],
      "payable": true,
      "stateMutability": "payable",
      "type": "function",
      "signature": "0x6ebf14d7"
    }
  ],
  "bytecode": "0x608060405260006003556000600455336000806101000a81548173ffffffffffffffffffffffffffffffffffffffff021916908373ffffffffffffffffffffffffffffffffffffffff160217905550610dad8061005d6000396000f3fe6080604052600436106100c5576000357c0100000000000000000000000000000000000000000000000000000000900463ffffffff16806308551a53146100ca57806309bd5a60146101215780631b76998a1461014c5780636ebf14d71461018e5780636f0c99d8146101bc578063a035b1fe146101e7578063a3166f7f14610212578063a8ec4c42146102e4578063af640d0f14610349578063b6ca6ba214610374578063c18ed1a11461042f578063ed35485e14610486578063f355b48b146104b1575b600080fd5b3480156100d657600080fd5b506100df6104df565b604051808273ffffffffffffffffffffffffffffffffffffffff1673ffffffffffffffffffffffffffffffffffffffff16815260200191505060405180910390f35b34801561012d57600080fd5b50610136610504565b6040518082815260200191505060405180910390f35b6101786004803603602081101561016257600080fd5b810190808035906020019092919050505061050a565b6040518082815260200191505060405180910390f35b6101ba600480360360208110156101a457600080fd5b810190808035906020019092919050505061071a565b005b3480156101c857600080fd5b506101d161084c565b6040518082815260200191505060405180910390f35b3480156101f357600080fd5b506101fc6108f4565b6040518082815260200191505060405180910390f35b34801561021e57600080fd5b506102e26004803603604081101561023557600080fd5b810190808035906020019064010000000081111561025257600080fd5b82018360208201111561026457600080fd5b8035906020019184600183028401116401000000008311171561028657600080fd5b91908080601f016020809104026020016040519081016040528093929190818152602001838380828437600081840152601f19601f820116905080830192505050505050509192919290803590602001909291905050506108fa565b005b3480156102f057600080fd5b506103336004803603602081101561030757600080fd5b81019080803573ffffffffffffffffffffffffffffffffffffffff1690602001909291905050506109be565b6040518082815260200191505060405180910390f35b34801561035557600080fd5b5061035e6109d6565b6040518082815260200191505060405180910390f35b34801561038057600080fd5b506103ad6004803603602081101561039757600080fd5b81019080803590602001909291905050506109dc565b6040518080602001838152602001828103825284818151815260200191508051906020019080838360005b838110156103f35780820151818401526020810190506103d8565b50505050905090810190601f1680156104205780820380516001836020036101000a031916815260200191505b50935050505060405180910390f35b34801561043b57600080fd5b50610444610b1d565b604051808273ffffffffffffffffffffffffffffffffffffffff1673ffffffffffffffffffffffffffffffffffffffff16815260200191505060405180910390f35b34801561049257600080fd5b5061049b610b43565b6040518082815260200191505060405180910390f35b6104dd600480360360208110156104c757600080fd5b8101908080359060200190929190505050610ba8565b005b6000809054906101000a900473ffffffffffffffffffffffffffffffffffffffff1681565b60045481565b60008060009054906101000a900473ffffffffffffffffffffffffffffffffffffffff1673ffffffffffffffffffffffffffffffffffffffff163373ffffffffffffffffffffffffffffffffffffffff161415151561056857600080fd5b8160035414151561057857600080fd5b33600160006101000a81548173ffffffffffffffffffffffffffffffffffffffff021916908373ffffffffffffffffffffffffffffffffffffffff1602179055503073ffffffffffffffffffffffffffffffffffffffff163160056000600160009054906101000a900473ffffffffffffffffffffffffffffffffffffffff1673ffffffffffffffffffffffffffffffffffffffff1673ffffffffffffffffffffffffffffffffffffffff16815260200190815260200160002081905550670de0b6b3a76400006002540260056000600160009054906101000a900473ffffffffffffffffffffffffffffffffffffffff1673ffffffffffffffffffffffffffffffffffffffff1673ffffffffffffffffffffffffffffffffffffffff168152602001908152602001600020541415156106b157600080fd5b60056000600160009054906101000a900473ffffffffffffffffffffffffffffffffffffffff1673ffffffffffffffffffffffffffffffffffffffff1673ffffffffffffffffffffffffffffffffffffffff168152602001908152602001600020549050919050565b6000809054906101000a900473ffffffffffffffffffffffffffffffffffffffff1673ffffffffffffffffffffffffffffffffffffffff163373ffffffffffffffffffffffffffffffffffffffff1614151561077557600080fd5b806004541415610849576000809054906101000a900473ffffffffffffffffffffffffffffffffffffffff1673ffffffffffffffffffffffffffffffffffffffff166108fc60056000600160009054906101000a900473ffffffffffffffffffffffffffffffffffffffff1673ffffffffffffffffffffffffffffffffffffffff1673ffffffffffffffffffffffffffffffffffffffff168152602001908152602001600020549081150290604051600060405180830381858888f19350505050158015610847573d6000803e3d6000fd5b505b50565b60008060009054906101000a900473ffffffffffffffffffffffffffffffffffffffff1673ffffffffffffffffffffffffffffffffffffffff163373ffffffffffffffffffffffffffffffffffffffff161415156108a957600080fd5b6216e4004442604051602001808381526020018281526020019250505060405160208183030381529060405280519060200120600190048115156108e957fe5b066004819055905090565b60025481565b6000809054906101000a900473ffffffffffffffffffffffffffffffffffffffff1673ffffffffffffffffffffffffffffffffffffffff163373ffffffffffffffffffffffffffffffffffffffff1614151561095557600080fd5b6003600081548092919060010191905055508060028190555081600660006003548152602001908152602001600020600001908051906020019061099a929190610cdc565b50600254600660006003548152602001908152602001600020600101819055505050565b60056020528060005260406000206000915090505481565b60035481565b606060008060009054906101000a900473ffffffffffffffffffffffffffffffffffffffff1673ffffffffffffffffffffffffffffffffffffffff163373ffffffffffffffffffffffffffffffffffffffff16141515610a3b57600080fd5b82600354141515610a4b57600080fd5b600660008481526020019081526020016000206000016006600085815260200190815260200160002060010154818054600181600116156101000203166002900480601f016020809104026020016040519081016040528092919081815260200182805460018160011615610100020316600290048015610b0d5780601f10610ae257610100808354040283529160200191610b0d565b820191906000526020600020905b815481529060010190602001808311610af057829003601f168201915b5050505050915091509150915091565b600160009054906101000a900473ffffffffffffffffffffffffffffffffffffffff1681565b60008060009054906101000a900473ffffffffffffffffffffffffffffffffffffffff1673ffffffffffffffffffffffffffffffffffffffff163373ffffffffffffffffffffffffffffffffffffffff16141515610ba057600080fd5b600454905090565b6000809054906101000a900473ffffffffffffffffffffffffffffffffffffffff1673ffffffffffffffffffffffffffffffffffffffff163373ffffffffffffffffffffffffffffffffffffffff1614151515610c0457600080fd5b806004541415610cd957600160009054906101000a900473ffffffffffffffffffffffffffffffffffffffff1673ffffffffffffffffffffffffffffffffffffffff166108fc60056000600160009054906101000a900473ffffffffffffffffffffffffffffffffffffffff1673ffffffffffffffffffffffffffffffffffffffff1673ffffffffffffffffffffffffffffffffffffffff168152602001908152602001600020549081150290604051600060405180830381858888f19350505050158015610cd7573d6000803e3d6000fd5b505b50565b828054600181600116156101000203166002900490600052602060002090601f016020900481019282601f10610d1d57805160ff1916838001178555610d4b565b82800160010185558215610d4b579182015b82811115610d4a578251825591602001919060010190610d2f565b5b509050610d589190610d5c565b5090565b610d7e91905b80821115610d7a576000816000905550600101610d62565b5090565b9056fea165627a7a7230582004770e9aca8db3cf3b36ac5367b6826dfae02c9c9506deeb161e8fd1ef6563280029",
  "source": "pragma solidity >=0.4.5;\ncontract Cod{\n    address payable public seller;\n    address payable public shipper;\n    uint public price;\n    uint public id = 0;\n    uint public hash = 0; \n    mapping(address => uint) public  Balances;\n    \n    constructor()public payable{\n        seller = msg.sender;\n    }\n    modifier noSeller{\n        require(msg.sender != seller);\n        _;\n    }   \n    modifier onlySeller{\n        require(msg.sender == seller);\n        _;\n    }\n        struct Package{\n         string name;\n         uint price;\n        \n         //string details;\n   }\n   mapping(uint => Package)packages;\n   function Ac1_CreatePackage(string memory _name, uint  _price) onlySeller public{\n        id++;\n        price = _price;\n        packages[id].name = _name;\n        packages[id].price = price;\n   }\n   function GetPackage(uint _id) public onlySeller view returns( string memory _name, uint  _price){\n       require(id == _id);\n       return(\n        packages[_id].name,\n        packages[_id].price);\n   }\n   function Ac2_CreateHash()public onlySeller returns(uint){\n     return  hash = uint(keccak256(abi.encodePacked(block.difficulty,now))) % 1500160;\n   }\n   function GetHash()public view onlySeller returns(uint){\n       return hash;\n   }\n  \n   function Ac3_ApplyBuy(uint _id) public noSeller payable returns(uint){\n      require(id == _id);\n      shipper = msg.sender;\n      Balances[shipper] = address(this).balance;\n      require(Balances[shipper] == price * 1 ether);\n      return Balances[shipper];\n  }\n    function ConfirmOfShipper(uint _hash)public payable noSeller{\n        if(hash ==_hash){\n            shipper.transfer(Balances[shipper]);\n        }\n    }\n    function ConFirmOfSeller(uint _hash)public payable onlySeller{\n        if(hash ==_hash){\n            seller.transfer(Balances[shipper]);\n        }\n    }\n}\n",
  "sourcePath": "/home/ndeveher/my-app/contracts/Cod.sol",
  "compiler": {
    "name": "solc",
    "version": "0.5.0+commit.1d4f565a.Emscripten.clang"
  },
  "schemaVersion": "3.0.1",
  "updatedAt": "2019-06-11T12:15:36.605Z",
  "devdoc": {
    "methods": {}
  },
  "userdoc": {
    "methods": {}
  }
}