{
  "contractName": "Sell",
  "abi": [
    {
      "constant": true,
      "inputs": [],
      "name": "seller",
      "outputs": [
        {
          "name": "",
          "type": "address"
        }
      ],
      "payable": false,
      "stateMutability": "view",
      "type": "function",
      "signature": "0x08551a53"
    },
    {
      "constant": true,
      "inputs": [],
      "name": "hash",
      "outputs": [
        {
          "name": "",
          "type": "uint256"
        }
      ],
      "payable": false,
      "stateMutability": "view",
      "type": "function",
      "signature": "0x09bd5a60"
    },
    {
      "constant": true,
      "inputs": [],
      "name": "buyer",
      "outputs": [
        {
          "name": "",
          "type": "address"
        }
      ],
      "payable": false,
      "stateMutability": "view",
      "type": "function",
      "signature": "0x7150d8ae"
    },
    {
      "constant": true,
      "inputs": [],
      "name": "price",
      "outputs": [
        {
          "name": "",
          "type": "uint256"
        }
      ],
      "payable": false,
      "stateMutability": "view",
      "type": "function",
      "signature": "0xa035b1fe"
    },
    {
      "constant": true,
      "inputs": [
        {
          "name": "",
          "type": "address"
        }
      ],
      "name": "Balances",
      "outputs": [
        {
          "name": "",
          "type": "uint256"
        }
      ],
      "payable": false,
      "stateMutability": "view",
      "type": "function",
      "signature": "0xa8ec4c42"
    },
    {
      "constant": true,
      "inputs": [],
      "name": "id",
      "outputs": [
        {
          "name": "",
          "type": "uint256"
        }
      ],
      "payable": false,
      "stateMutability": "view",
      "type": "function",
      "signature": "0xaf640d0f"
    },
    {
      "inputs": [],
      "payable": true,
      "stateMutability": "payable",
      "type": "constructor",
      "signature": "constructor"
    },
    {
      "constant": false,
      "inputs": [
        {
          "name": "_name",
          "type": "string"
        },
        {
          "name": "_price",
          "type": "uint256"
        },
        {
          "name": "_details",
          "type": "string"
        }
      ],
      "name": "Ac1_CreatePackage",
      "outputs": [],
      "payable": false,
      "stateMutability": "nonpayable",
      "type": "function",
      "signature": "0x1d1123d6"
    },
    {
      "constant": true,
      "inputs": [
        {
          "name": "_id",
          "type": "uint256"
        }
      ],
      "name": "GetPackage",
      "outputs": [
        {
          "name": "_name",
          "type": "string"
        },
        {
          "name": "_price",
          "type": "uint256"
        },
        {
          "name": "_details",
          "type": "string"
        }
      ],
      "payable": false,
      "stateMutability": "view",
      "type": "function",
      "signature": "0xb6ca6ba2"
    },
    {
      "constant": true,
      "inputs": [
        {
          "name": "_id",
          "type": "uint256"
        }
      ],
      "name": "GetName",
      "outputs": [
        {
          "name": "",
          "type": "string"
        }
      ],
      "payable": false,
      "stateMutability": "view",
      "type": "function",
      "signature": "0x9fcce670"
    },
    {
      "constant": true,
      "inputs": [
        {
          "name": "_id",
          "type": "uint256"
        }
      ],
      "name": "GetDetails",
      "outputs": [
        {
          "name": "",
          "type": "string"
        }
      ],
      "payable": false,
      "stateMutability": "view",
      "type": "function",
      "signature": "0xbac8e8e5"
    },
    {
      "constant": false,
      "inputs": [],
      "name": "Ac2_CreateHash",
      "outputs": [
        {
          "name": "",
          "type": "uint256"
        }
      ],
      "payable": false,
      "stateMutability": "nonpayable",
      "type": "function",
      "signature": "0x6f0c99d8"
    },
    {
      "constant": false,
      "inputs": [
        {
          "name": "_id",
          "type": "uint256"
        }
      ],
      "name": "Ac3_ApplyBuy",
      "outputs": [
        {
          "name": "",
          "type": "uint256"
        }
      ],
      "payable": true,
      "stateMutability": "payable",
      "type": "function",
      "signature": "0x1b76998a"
    },
    {
      "constant": false,
      "inputs": [
        {
          "name": "_hash",
          "type": "uint256"
        }
      ],
      "name": "ConfirmOfBuyer",
      "outputs": [],
      "payable": true,
      "stateMutability": "payable",
      "type": "function",
      "signature": "0x401de3ae"
    },
    {
      "constant": false,
      "inputs": [
        {
          "name": "_hash",
          "type": "uint256"
        }
      ],
      "name": "ConFirmOfSeller",
      "outputs": [],
      "payable": true,
      "stateMutability": "payable",
      "type": "function",
      "signature": "0x6ebf14d7"
    }
  ],
  "bytecode": "0x608060405260006003556000600455336000806101000a81548173ffffffffffffffffffffffffffffffffffffffff021916908373ffffffffffffffffffffffffffffffffffffffff1602179055506112bf8061005d6000396000f3fe6080604052600436106100d0576000357c0100000000000000000000000000000000000000000000000000000000900463ffffffff16806308551a53146100d557806309bd5a601461012c5780631b76998a146101575780631d1123d614610199578063401de3ae146103025780636ebf14d7146103305780636f0c99d81461035e5780637150d8ae146103895780639fcce670146103e0578063a035b1fe14610494578063a8ec4c42146104bf578063af640d0f14610524578063b6ca6ba21461054f578063bac8e8e514610676575b600080fd5b3480156100e157600080fd5b506100ea61072a565b604051808273ffffffffffffffffffffffffffffffffffffffff1673ffffffffffffffffffffffffffffffffffffffff16815260200191505060405180910390f35b34801561013857600080fd5b5061014161074f565b6040518082815260200191505060405180910390f35b6101836004803603602081101561016d57600080fd5b8101908080359060200190929190505050610755565b6040518082815260200191505060405180910390f35b3480156101a557600080fd5b50610300600480360360608110156101bc57600080fd5b81019080803590602001906401000000008111156101d957600080fd5b8201836020820111156101eb57600080fd5b8035906020019184600183028401116401000000008311171561020d57600080fd5b91908080601f016020809104026020016040519081016040528093929190818152602001838380828437600081840152601f19601f820116905080830192505050505050509192919290803590602001909291908035906020019064010000000081111561027a57600080fd5b82018360208201111561028c57600080fd5b803590602001918460018302840111640100000000831117156102ae57600080fd5b91908080601f016020809104026020016040519081016040528093929190818152602001838380828437600081840152601f19601f820116905080830192505050505050509192919290505050610965565b005b61032e6004803603602081101561031857600080fd5b8101908080359060200190929190505050610a57565b005b61035c6004803603602081101561034657600080fd5b8101908080359060200190929190505050610b8b565b005b34801561036a57600080fd5b50610373610cbd565b6040518082815260200191505060405180910390f35b34801561039557600080fd5b5061039e610d65565b604051808273ffffffffffffffffffffffffffffffffffffffff1673ffffffffffffffffffffffffffffffffffffffff16815260200191505060405180910390f35b3480156103ec57600080fd5b506104196004803603602081101561040357600080fd5b8101908080359060200190929190505050610d8b565b6040518080602001828103825283818151815260200191508051906020019080838360005b8381101561045957808201518184015260208101905061043e565b50505050905090810190601f1680156104865780820380516001836020036101000a031916815260200191505b509250505060405180910390f35b3480156104a057600080fd5b506104a9610eae565b6040518082815260200191505060405180910390f35b3480156104cb57600080fd5b5061050e600480360360208110156104e257600080fd5b81019080803573ffffffffffffffffffffffffffffffffffffffff169060200190929190505050610eb4565b6040518082815260200191505060405180910390f35b34801561053057600080fd5b50610539610ecc565b6040518082815260200191505060405180910390f35b34801561055b57600080fd5b506105886004803603602081101561057257600080fd5b8101908080359060200190929190505050610ed2565b604051808060200184815260200180602001838103835286818151815260200191508051906020019080838360005b838110156105d25780820151818401526020810190506105b7565b50505050905090810190601f1680156105ff5780820380516001836020036101000a031916815260200191505b50838103825284818151815260200191508051906020019080838360005b8381101561063857808201518184015260208101905061061d565b50505050905090810190601f1680156106655780820380516001836020036101000a031916815260200191505b509550505050505060405180910390f35b34801561068257600080fd5b506106af6004803603602081101561069957600080fd5b81019080803590602001909291905050506110cb565b6040518080602001828103825283818151815260200191508051906020019080838360005b838110156106ef5780820151818401526020810190506106d4565b50505050905090810190601f16801561071c5780820380516001836020036101000a031916815260200191505b509250505060405180910390f35b6000809054906101000a900473ffffffffffffffffffffffffffffffffffffffff1681565b60045481565b60008060009054906101000a900473ffffffffffffffffffffffffffffffffffffffff1673ffffffffffffffffffffffffffffffffffffffff163373ffffffffffffffffffffffffffffffffffffffff16141515156107b357600080fd5b816003541415156107c357600080fd5b33600160006101000a81548173ffffffffffffffffffffffffffffffffffffffff021916908373ffffffffffffffffffffffffffffffffffffffff1602179055503073ffffffffffffffffffffffffffffffffffffffff163160056000600160009054906101000a900473ffffffffffffffffffffffffffffffffffffffff1673ffffffffffffffffffffffffffffffffffffffff1673ffffffffffffffffffffffffffffffffffffffff16815260200190815260200160002081905550670de0b6b3a76400006002540260056000600160009054906101000a900473ffffffffffffffffffffffffffffffffffffffff1673ffffffffffffffffffffffffffffffffffffffff1673ffffffffffffffffffffffffffffffffffffffff168152602001908152602001600020541415156108fc57600080fd5b60056000600160009054906101000a900473ffffffffffffffffffffffffffffffffffffffff1673ffffffffffffffffffffffffffffffffffffffff1673ffffffffffffffffffffffffffffffffffffffff168152602001908152602001600020549050919050565b6000809054906101000a900473ffffffffffffffffffffffffffffffffffffffff1673ffffffffffffffffffffffffffffffffffffffff163373ffffffffffffffffffffffffffffffffffffffff161415156109c057600080fd5b60036000815480929190600101919050555081600281905550826006600060035481526020019081526020016000206000019080519060200190610a059291906111ee565b5060025460066000600354815260200190815260200160002060010181905550806006600060035481526020019081526020016000206002019080519060200190610a519291906111ee565b50505050565b6000809054906101000a900473ffffffffffffffffffffffffffffffffffffffff1673ffffffffffffffffffffffffffffffffffffffff163373ffffffffffffffffffffffffffffffffffffffff1614151515610ab357600080fd5b806004541415610b8857600160009054906101000a900473ffffffffffffffffffffffffffffffffffffffff1673ffffffffffffffffffffffffffffffffffffffff166108fc60056000600160009054906101000a900473ffffffffffffffffffffffffffffffffffffffff1673ffffffffffffffffffffffffffffffffffffffff1673ffffffffffffffffffffffffffffffffffffffff168152602001908152602001600020549081150290604051600060405180830381858888f19350505050158015610b86573d6000803e3d6000fd5b505b50565b6000809054906101000a900473ffffffffffffffffffffffffffffffffffffffff1673ffffffffffffffffffffffffffffffffffffffff163373ffffffffffffffffffffffffffffffffffffffff16141515610be657600080fd5b806004541415610cba576000809054906101000a900473ffffffffffffffffffffffffffffffffffffffff1673ffffffffffffffffffffffffffffffffffffffff166108fc60056000600160009054906101000a900473ffffffffffffffffffffffffffffffffffffffff1673ffffffffffffffffffffffffffffffffffffffff1673ffffffffffffffffffffffffffffffffffffffff168152602001908152602001600020549081150290604051600060405180830381858888f19350505050158015610cb8573d6000803e3d6000fd5b505b50565b60008060009054906101000a900473ffffffffffffffffffffffffffffffffffffffff1673ffffffffffffffffffffffffffffffffffffffff163373ffffffffffffffffffffffffffffffffffffffff16141515610d1a57600080fd5b6216e400444260405160200180838152602001828152602001925050506040516020818303038152906040528051906020012060019004811515610d5a57fe5b066004819055905090565b600160009054906101000a900473ffffffffffffffffffffffffffffffffffffffff1681565b60606000809054906101000a900473ffffffffffffffffffffffffffffffffffffffff1673ffffffffffffffffffffffffffffffffffffffff163373ffffffffffffffffffffffffffffffffffffffff16141515610de857600080fd5b81600354141515610df857600080fd5b600660008381526020019081526020016000206000018054600181600116156101000203166002900480601f016020809104026020016040519081016040528092919081815260200182805460018160011615610100020316600290048015610ea25780601f10610e7757610100808354040283529160200191610ea2565b820191906000526020600020905b815481529060010190602001808311610e8557829003601f168201915b50505050509050919050565b60025481565b60056020528060005260406000206000915090505481565b60035481565b6060600060606000809054906101000a900473ffffffffffffffffffffffffffffffffffffffff1673ffffffffffffffffffffffffffffffffffffffff163373ffffffffffffffffffffffffffffffffffffffff16141515610f3357600080fd5b83600354141515610f4357600080fd5b60066000858152602001908152602001600020600001600660008681526020019081526020016000206001015460066000878152602001908152602001600020600201828054600181600116156101000203166002900480601f01602080910402602001604051908101604052809291908181526020018280546001816001161561010002031660029004801561101b5780601f10610ff05761010080835404028352916020019161101b565b820191906000526020600020905b815481529060010190602001808311610ffe57829003601f168201915b50505050509250808054600181600116156101000203166002900480601f0160208091040260200160405190810160405280929190818152602001828054600181600116156101000203166002900480156110b75780601f1061108c576101008083540402835291602001916110b7565b820191906000526020600020905b81548152906001019060200180831161109a57829003601f168201915b505050505090509250925092509193909250565b60606000809054906101000a900473ffffffffffffffffffffffffffffffffffffffff1673ffffffffffffffffffffffffffffffffffffffff163373ffffffffffffffffffffffffffffffffffffffff1614151561112857600080fd5b8160035414151561113857600080fd5b600660008381526020019081526020016000206002018054600181600116156101000203166002900480601f0160208091040260200160405190810160405280929190818152602001828054600181600116156101000203166002900480156111e25780601f106111b7576101008083540402835291602001916111e2565b820191906000526020600020905b8154815290600101906020018083116111c557829003601f168201915b50505050509050919050565b828054600181600116156101000203166002900490600052602060002090601f016020900481019282601f1061122f57805160ff191683800117855561125d565b8280016001018555821561125d579182015b8281111561125c578251825591602001919060010190611241565b5b50905061126a919061126e565b5090565b61129091905b8082111561128c576000816000905550600101611274565b5090565b9056fea165627a7a723058207db860967f8df55c57ca2170b9d4be1367b0cd843994ef36288b08b2fd68ebe70029",
  "source": "pragma solidity >=0.4.5;\ncontract Sell{\n    address payable public seller;\n    address payable public buyer;\n    uint public price;\n    uint public id = 0;\n    uint public hash = 0; \n    mapping(address => uint) public  Balances;\n    \n    \n    constructor()public payable{\n        seller = msg.sender;\n    }\n    modifier noSeller{\n        require(msg.sender != seller);\n        _;\n    }   \n    modifier onlySeller{\n        require(msg.sender == seller);\n        _;\n    }\n     struct Package{\n    \n         string name;\n         uint price;\n         string details;\n   }\n   mapping(uint => Package)packages;\n   \n   function Ac1_CreatePackage(string memory _name, uint  _price,string memory _details) onlySeller public{\n        id++;\n        price = _price;\n        packages[id].name = _name;\n        packages[id].price = price;\n        packages[id].details = _details;\n   }\n   function GetPackage(uint _id) public onlySeller view \n   returns( string memory _name, uint  _price,string memory _details){\n       require(id == _id);\n       return(\n        packages[_id].name,\n        packages[_id].price,\n        packages[_id].details);\n   }\n      function GetName(uint _id) public onlySeller view returns( string memory){\n      require(id == _id);\n      return(packages[_id].name);\n    }\n \n    function GetDetails(uint _id) public onlySeller view returns( string memory ){\n      require(id == _id);\n      return(packages[_id].details);\n    }\n   function Ac2_CreateHash()public onlySeller returns(uint){\n     return  hash = uint(keccak256(abi.encodePacked(block.difficulty,now))) % 1500160;\n   }\n  \n   function Ac3_ApplyBuy(uint _id) public noSeller payable returns(uint){\n      require(id == _id);\n      buyer = msg.sender;\n      Balances[buyer] = address(this).balance;\n      require(Balances[buyer] == price * 1 ether);\n      return Balances[buyer];\n  }\n    function ConfirmOfBuyer(uint _hash)public payable noSeller{\n        if(hash ==_hash){\n            buyer.transfer(Balances[buyer]);\n        }\n    }\n    function ConFirmOfSeller(uint _hash)public payable onlySeller{\n        if(hash ==_hash){\n            seller.transfer(Balances[buyer]);\n        }\n    }\n}\n",
  "sourcePath": "/home/ndeveher/my-app/contracts/Sell.sol",
  "compiler": {
    "name": "solc",
    "version": "0.5.0+commit.1d4f565a.Emscripten.clang"
  },
  "schemaVersion": "3.0.1",
  "updatedAt": "2019-06-02T11:36:40.299Z",
  "devdoc": {
    "methods": {}
  },
  "userdoc": {
    "methods": {}
  }
}